:020000040800F2
:100000000050002009160008E9120008EF1200084D
:10001000F5120008FB1200080113000800000000A0
:1000200000000000000000000000000007130008AE
:1000300013130008000000001F1300082B13000812
:1000400051160008511600085116000851160008F4
:100050005116000851160008371300084513000810
:1000600053130008611300086F13000851160008AD
:1000700051160008511600085116000851160008C4
:1000800051160008511600085116000851160008B4
:1000900051160008511600085116000851160008A4
:1000A0005116000851160008511600085116000894
:1000B000511600087D13000851160008511600085B
:1000C0005116000851160008511600085116000874
:1000D0005116000851160008511600085116000864
:1000E0009113000851160008511600080000000086
:1000F0000000000000000000000000000000000000
:0C01000000000000000000005FF808F1A3
:10010C0010B5054C237833B9044B13B10448AFF345
:10011C0000800123237010BD80000020000000002F
:10012C00E44C000808B5034B1BB103490348AFF37B
:10013C00008008BD0000000084000020E44C000892
:10014C00034613F8012B002AFBD1181A013870470B
:10015C0080B588B000AF07F1100300221A605A6016
:10016C009A60DA60604B9B695F4A43F020039361AD
:10017C005D4B9B6903F02003FB60FB685A4B9B694A
:10018C00594A43F004039361574B9B6903F00403F2
:10019C00BB60BB68544B9B69534A43F008039361A3
:1001AC00514B9B6903F008037B607B680022E021C4
:1001BC004E4801F078FF012201214D4801F073FFF8
:1001CC00002240F282314A4801F06DFF03233B616B
:1001DC00484B7B610123BB6107F11003194643486F
:1001EC0001F0C6FD0C233B61434B7B610123BB61DA
:1001FC0007F1100319463D4801F0BAFD10233B618D
:10020C003D4B7B610223BB6107F110031946374854
:10021C0001F0AEFDE0233B6101237B610023BB6158
:10022C000223FB6107F110031946304801F0A0FDD1
:10023C0040F283333B6101237B610023BB610223CA
:10024C00FB6107F110031946294801F091FD4FF4A9
:10025C0040633B61284B7B610123BB6107F11003B9
:10026C001946234801F084FD40233B6100237B6148
:10027C000123BB6107F1100319461D4801F078FDFD
:10028C0000220021062001F03CFB062001F055FB6A
:10029C0000220021072001F034FB072001F04DFB68
:1002AC0000220021082001F02CFB082001F045FB66
:1002BC0000220021092001F024FB092001F03DFB64
:1002CC00002200210A2001F01CFB0A2001F035FB62
:1002DC0000220021282001F014FB282001F02DFB26
:1002EC0000BF2037BD4680BD001002400008014011
:1002FC00000C0140000031100000111080B500AF5F
:10030C00094B0A4A1A60084B00225A60064B40F609
:10031C00FF729A60044801F0F7FE0346002B01D0EF
:10032C0000F072FF00BF80BD9C0000200030004038
:10033C0080B588B000AFF860B9607A603B6032235A
:10034C00FB61FB6898B2BB6899B2FB699AB27B6897
:10035C009BB203F0C9FAFB6898B2BB6899B2FB690F
:10036C003A6802FB03F3104A82FB03C25211DB17FB
:10037C00D31A9AB27B689BB203F040FBFB68002B4C
:10038C0000DA0F331B111846FB69002B00DA073318
:10039C00DB10013307F11402194603F03FF800BFDC
:1003AC002037BD4680BD00BF1F85EB5180B400AF28
:1003BC00194B1A4A9A60184B4FF4E1525A60164B7B
:1003CC000A221A60144B01229A82134B0A22DA82F7
:1003DC00114B134A1A61104B3C22DA600E4B114A36
:1003EC001A620D4B4FF4E152DA610B4B0A229A61FF
:1003FC00094B01229A85084B0A22DA85064B084ADA
:10040C009A62054B3C225A62074B034A1A6000BFA2
:10041C00BD4680BC704700BFF0000020FC4C0008BB
:10042C00044D0008084D00082401002080B584B05C
:10043C0000AF6E4B1B78002B06D003F03BF903F09A
:10044C00F1F86A4B00221A700023FB60684B1B68A2
:10045C00002B09D0674B1B68642203FB02F2644B30
:10046C001B68B2FBF3F3FB60624B1B68624AA2FB96
:10047C000323DB0ABB605F4B1A685F4BA3FB0213C1
:10048C00DB0A4FF4616101FB03F3D31A5B4AA2FB55
:10049C0003235B097B60574B1B68574AA2FB031273
:1004AC00D20A4FF4616101FB02F29A1A534BA3FB7F
:1004BC00021359090B461B015B1A9B00D11A3960B8
:1004CC00BB684F4A82FB03129210DB17D31A4D4ABA
:1004DC00D25C4D4B1A70B968494B83FB01239A10BF
:1004EC00CB17D21A13469B0013445B00CA1A454B18
:1004FC009A5C454B5A70444B3A229A707B68404A3E
:10050C0082FB03129210DB17D31A3E4AD25C3E4B8D
:10051C00DA7079683A4B83FB01239A10CB17D21A05
:10052C0013469B0013445B00CA1A364B9A5C364B3D
:10053C001A71354B3A225A713B68314A82FB0312CD
:10054C009210DB17D31A2F4AD25C2F4B9A71396851
:10055C002B4B83FB01239A10CB17D21A13469B000B
:10056C0013445B00CA1A274B9A5C274BDA71264B53
:10057C0000221A72254B1B78022B1ED0022B31DC69
:10058C00002B02D0012B0BD02CE0214B1A78214BE5
:10059C001A70204B1B78F968184600F0E3F921E03B
:1005AC001D4803F0E7FC0346DAB21C4B1A701B4BD8
:1005BC001B78184600F0A6FA14E0174803F0DAFC92
:1005CC000346174A1360174B1B681A68144B1B68B9
:1005DC009A4204D9134B1B681B68114A136000F034
:1005EC0039FB00BF00BF1037BD4680BD5001002055
:1005FC00300100202C010020C5B3A2918988888885
:10060C0067666666AC5100080000002023010020DC
:10061C002201002049010020A800002048010020F0
:10062C004C0100202401002080B500AF0A4B1B7840
:10063C00022B0CD0022B0DDC002B02D0012B03D093
:10064C0008E000F00BF805E000F048F802E000F0DC
:10065C0077F800BF00BF80BD2201002080B500AF3D
:10066C00164B1B78002B18D100F0C6F800F030F9AF
:10067C000346134A1360134BDB68134A1360124B87
:10068C001B68124A13600D4B01221A70104B00228A
:10069C001A60104B01221A700DE00C4B1B68002BDA
:1006AC000CBF01230023DBB2002B04D00A4B012228
:1006BC001A7000F0A1F800BF80BD00BF2801002017
:1006CC003C010020F0000020300100202C01002013
:1006DC00540100204A0100202201002080B500AF07
:1006EC00114B1B78002B1DD100F086F80F4B00220C
:1006FC001A600D4B01221A7001224FF480710C48C4
:10070C0001F0D1FC01228021094801F0CCFC00F061
:10071C00DFF80346074A1360074B01221A60074BA8
:10072C0001221A7000BF80BD290100202C0100207D
:10073C00000C01403C010020540100204A01002023
:10074C0080B500AF164B1B78002B18D100F054F875
:10075C00144B5B6A144A1360134B1B68134A1360E7
:10076C000F4B01221A70124B02221A60114B0122FC
:10077C001A7000F0ADF803460F4A13600DE00B4BF6
:10078C001B68002B0CBF01230023DBB2002B04D011
:10079C000A4B00221A7000F02FF800BF80BD00BF7A
:1007AC002A010020F0000020300100202C01002044
:1007BC00540100204A0100203C01002022010020AD
:1007CC0080B500AF094B1B78002B0DD000F014F84E
:1007DC0001224FF40071064801F065FC054B002224
:1007EC001A70024B00221A7000BF80BD200100203D
:1007FC00000C01402201002080B500AF00224FF414
:10080C0000710F4801F04FFC00224FF480710C482E
:10081C0001F049FC00228021094801F044FC094BFD
:10082C0000221A70084B00221A70084B00221A7012
:10083C0000F04EF80346064A136000BF80BD00BFAF
:10084C00000C014028010020290100202A01002071
:10085C003C01002080B500AF184B1B78DBB2002B9D
:10086C0014BF01230023DBB2002B0FD00122022185
:10087C00134801F018FC00F02BF80346114A1360E2
:10088C000E4B00221A70104B01221A7000F020F847
:10089C0002460C4B1B68D31A0C4A93428CBF0123A3
:1008AC000023DBB2002B07D000220221044801F008
:1008BC00FAFB054B00221A7000BF80BD34010020EA
:1008CC00000C01404001002035010020BFD4010084
:1008DC0080B400AF024B1B681846BD4680BC704705
:1008EC003801002080B500AF03F03AFA02F0E2FEC6
:1008FC00012002F0D7FD174802F004FE4FF47A7085
:10090C0000F004FF402380220021002003F076F841
:10091C0002F072FE462000F0F9FE002002F0C2FD4B
:10092C000D4A0121012002F079FD0C4A0021022020
:10093C0002F074FD962301220949032003F0BCF850
:10094C00462000F0E3FE02F06DFE642000F0DEFEB7
:10095C0000BF80BDAC4D0008104D0008204D0008B4
:10096C00344D000880B582B000AF03463960FB718E
:10097C0002F04CFE012002F095FD0F2328223021BD
:10098C00002003F03BF80F23282230212C2003F009
:10099C0035F80F2328223021572003F02FF82F236E
:1009AC0057220021572002F02FFF0F237F220F2107
:1009BC00572002F029FF1F237F221F21572002F00E
:1009CC0023FF2F2300220021002002F01DFF2F23E4
:1009DC0056220021562002F017FF00237F2200210F
:1009EC00002002F011FF2F2356222F21002002F0AD
:1009FC000BFFFA79394BA3FB021359080B465B002A
:100A0C000B44D31ADBB2002B06D10F232A22002170
:100A1C00572002F0F3FF24E0FA79304BA3FB0213CA
:100A2C0059080B465B000B44D31ADBB2012B06D1E1
:100A3C000F232A221021572002F0E0FF11E0FA794F
:100A4C00264BA3FB021359080B465B000B44D31A2D
:100A5C00DBB2022B05D10F232A221F21572002F0D3
:100A6C00CDFF3B68082223210520FFF761FC02F033
:100A7C00C3FD002002F016FD194A0021002002F0EF
:100A8C00CDFC184A0021012002F0C8FC164A0021B6
:100A9C00012002F0C3FC154A0621002002F0BEFC26
:100AAC00134A0621012002F0B9FC124A0621022049
:100ABC0002F0B4FC104A0021032002F0AFFC0F4AF4
:100ACC000321032002F0AAFC0D4A0621032002F0A8
:100ADC00A5FC00BF0837BD4680BD00BFABAAAAAAC3
:100AEC00484D0008544D000800000020684D0008D7
:100AFC006C4D0008744D00087C4D0008844D0008B6
:100B0C00884D000880B588B000AF0346FB7102F039
:100B1C007DFD012002F0C6FC3F237F220021002036
:100B2C0002F0E2FE0E237F220021002002F0DCFE08
:100B3C000F2328223021002002F0D6FE0F2328227A
:100B4C0030212C2002F0D0FE0F23282230215720F8
:100B5C0002F0CAFEFB7903F00103002B06D10F2330
:100B6C007F221021002002F049FF0AE0FB7903F0FC
:100B7C000103002B05D00F237F222021002002F03F
:100B8C003DFF02F039FD002002F08CFC2A4B9A68E4
:100B9C0007F118032949184603F010FD264B1A6A71
:100BAC0007F110032549184603F008FDFB7903F003
:100BBC000102214913465B001344DB000B440C3348
:100BCC001A6807F108031E49184603F0F7FC1D4A82
:100BDC000221002002F022FC1B4A0021012002F01D
:100BEC001DFC194A0021022002F018FC07F1180321
:100BFC001A460021012002F011FC07F110031A46DD
:100C0C000021022002F00AFCFB7903F001030133FE
:100C1C0007F108020421184602F000FC0B4A0321DC
:100C2C00032002F0FBFB0A4A0621032002F0F6FB2C
:100C3C0000BF2037BD4680BDF00000208C4D000861
:100C4C00904D0008944D0008544D0008A04D00082C
:100C5C00884D000880B586B000AF02F0D7FC0120AB
:100C6C0002F020FC0F237F220021002002F0C6FEA0
:100C7C003F237F220021002002F036FE374B1B78E9
:100C8C00002B12D10F2328223021002002F0B6FEB7
:100C9C000F23282230212C2002F0B0FE0F23282213
:100CAC003021572002F0AAFE05E00F237F223021CD
:100CBC00002002F0A3FE02F09FFC002002F0F2FBE9
:100CCC00274B1B689A6807F110032649184603F056
:100CDC0075FC254B1A6807F108032449184603F0E4
:100CEC006DFC1F4B1B681A693B1D1E49184603F00F
:100CFC0065FC1F4A0021012002F090FB07F1100354
:100D0C001A460321002002F089FB07F108031A465A
:100D1C000021012002F082FB3B1D1A46002102201B
:100D2C0002F07CFB0D4B1B78002B0AD1114A0321DE
:100D3C00032002F073FB104A0621032002F06EFB25
:100D4C0008E00E4A0221032002F068FB4FF4FA700F
:100D5C0000F0DCFC00BF1837BD4680BD4A01002006
:100D6C00240100208C4D00084C010020904D0008FF
:100D7C00544D0008A04D0008884D0008A44D0008F3
:100D8C0080B582B002AF022300930D4B01220C49B7
:100D9C000C4803F095F81E210A4803F0DDF84FF6D5
:100DAC00FF71084803F0BEF80021064803F0C7F8AD
:100DBC000021044803F056FA00BFBD4680BD00BFB9
:100DCC0000080140A800002080B500AF00F03CFCFA
:100DDC0000F026F9FFF7BCF900F03EFBFFF78EFAA6
:100DEC0000F086FB804801F059FE0346002B14BF2F
:100DFC0001230023DBB2002B01D000F005FAFFF732
:100E0C00BFFFFFF7D3FA03227849794802F01BFAA7
:100E1C00764B5B68774AD360744B9B68754A536218
:100E2C00724B1B68DAB2744B1A70744B00221A7036
:100E3C00FFF758FDFFF7C4FC704B1B78013B032BED
:100E4C0000F2B48001A252F823F000BF690E000832
:100E5C009F0E0008D70E0008250F0008664B1B7864
:100E6C00012B06D1644B02221A70654B01221A70B9
:100E7C0009E0614B1B78022B05D15F4B00221A70E5
:100E8C005F4B01221A70FFF7B7FC5C4B00221A7003
:100E9C008DE05C4B1B78002B13D15A4B01221A703E
:100EAC00FF21594803F03EF8584B1B781946564819
:100EBC0003F045F80121544803F04EF8504B012241
:100ECC001A704E4B00221A7071E04E4B1B78022B9D
:100EDC0014D14C4B01221A70FF214B4803F022F81D
:100EEC004A4B1B781946484803F0BCF90121464887
:100EFC0003F032F8424B01221A7009E0414B1B7887
:100F0C00012B05D13F4B00221A703D4B01221A7068
:100F1C003A4B00221A704AE03A4B1B78012B28D12D
:100F2C00384B02221A70394B1B7803F0010213461E
:100F3C005B001344DB002F4A1344354A1360344BD7
:100F4C001B685B681946304802F0ECFF304B1B689D
:100F5C00DB68304A13602F4B1B6819462A4803F094
:100F6C0081F91E21284802F0F7FF254B01221A7047
:100F7C0018E0244B1B78022B14D1274B01221A703A
:100F8C00224B1B7803F001030133224A12681749E4
:100F9C0041F823201E4B1B681E4A1268DA60184B5E
:100FAC0001221A70154B00221A7000E000BFFFF7E7
:100FBC003BFBFFF73BFAFFF74DFCFFF789FC0346C1
:100FCC00164A1360144B1B78002B3FF433AF0322EB
:100FDC000649074802F05AF90F4B00221A70084BC9
:100FEC0001221A7026E700BFAC010020540100203A
:100FFC0000DC0008F000002022010020210100206C
:10100C005001002023010020A800002048010020EE
:10101C00240100204C0100204A0100204401002042
:10102C0080B590B000AF07F11803282200211846B4
:10103C0003F08CF93B1D00221A605A609A60DA604A
:10104C001A610923BB614FF48033FB6100233B62BF
:10105C000123BB6201233B6302237B634FF4803388
:10106C00BB634FF4E013FB6307F11803184601F060
:10107C009DF80346002B14BF01230023DBB2002B89
:10108C0001D000F0C1F80F237B600223BB6000236A
:10109C00FB604FF480633B614FF480637B613B1DCD
:1010AC000221184601F004FB0346002B14BF012358
:1010BC000023DBB2002B01D000F0A6F800BF4037B4
:1010CC00BD4680BD80B582B000AF0346FB80BB1D22
:1010DC0019462A4802F0A6FFFB88B3F5806F10D1A1
:1010EC00274B1B78DBB2002B14BF01230023DBB290
:1010FC00002B02D0234B03221A70234B01221A70AF
:10110C0031E0FB88082B10D11D4B1B78DBB2002B78
:10111C0014BF01230023DBB2002B02D0194B022297
:10112C001A70194B01221A701DE0FB88B3F5006F81
:10113C0006D1144B01221A70134B01221A7012E0C3
:10114C00FB88042B0FD10E4B1B78DBB2002B14BF8A
:10115C0001230023DBB2002B02D00A4B04221A70AD
:10116C00094B01221A70FB88102B02D1074B01226C
:10117C001A7000BF0837BD4680BD00BFA800002014
:10118C003501002021010020340100202001002025
:10119C0080B582B000AF78607B681B68154A9342BB
:1011AC0023D1154B1B680133134A1360FFF790FBD7
:1011BC000246124B1B68D31AB3F57A7F05D3104B3A
:1011CC001B68002B01D0012300E00023002B09D069
:1011DC000B4B1B68013B0A4A1360FFF779FB034674
:1011EC00064A1360074800F0D1FF00BF0837BD4620
:1011FC0080BD00BF00040040380100203C010020ED
:10120C002C0100209C00002080B400AF72B600BFFF
:10121C00FEE7000080B582B000AF786039607B6873
:10122C00012B07D13B684FF6FF72934202D109485C
:10123C0002F0F5FD7B68002B07D13B684FF6FF727F
:10124C00934202D1034802F028FE00BF0837BD4686
:10125C0080BD00BFA800002080B500AF4FF6FF7125
:10126C000120FFF7D7FF80BD80B500AF4FF6FF71AF
:10127C000020FFF7CFFF80BD80B485B000AF154BC9
:10128C009B69144A43F001039361124B9B6903F071
:10129C000103BB60BB680F4BDB690E4A43F0805304
:1012AC00D3610C4BDB6903F080537B607B680A4B8A
:1012BC005B68FB60FB6823F0E063FB60FB6843F05A
:1012CC000073FB60044AFB68536000BF1437BD46D3
:1012DC0080BC7047001002400000014080B400AF99
:1012EC00FEE780B400AFFEE780B400AFFEE780B449
:1012FC0000AFFEE780B400AFFEE780B400AF00BFE4
:10130C00BD4680BC704780B400AF00BFBD4680BCFA
:10131C00704780B400AF00BFBD4680BC704780B53D
:10132C0000AF00F0D7F900BF80BD80B500AF012041
:10133C0000F0D2FE00BF80BD80B500AF022000F0EF
:10134C00CBFE00BF80BD80B500AF042000F0C4FE12
:10135C0000BF80BD80B500AF082000F0BDFE00BF0F
:10136C0080BD80B500AF102000F0B6FE00BF80BD80
:10137C0080B500AF024801F0E3FB00BF80BD00BFA9
:10138C00AC01002080B500AF4FF4806000F0A4FEEB
:10139C004FF4006000F0A0FE00BF80BD80B400AF31
:1013AC0001231846BD4680BC704780B582B000AFA3
:1013BC007860396002F0A0FF034616221A604FF0E5
:1013CC00FF3318460837BD4680BD80B582B000AFEC
:1013DC0078604FF0FF317868FFF7E7FFFEE7000019
:1013EC0080B586B000AF7860144A154BD31A7B6178
:1013FC007B693B61134B1B68002B02D1114B124ACA
:10140C001A60104B1A687B6813443A699A4207D2E7
:10141C0002F072FF03460C221A604FF0FF3309E012
:10142C00084B1B68FB60074B1A687B681344054A22
:10143C001360FB6818461837BD4680BD005000206D
:10144C0000040000600100204006002080B400AFC2
:10145C0000BFBD4680BC704780B586B000AF07F1B9
:10146C00080300221A605A609A60DA603B46002238
:10147C001A605A601D4B4FF080421A601B4B47227A
:10148C005A601A4B00229A60184B4FF6FE72DA60C3
:10149C00164B00221A61154B00229A61134801F079
:1014AC0063FA0346002B01D0FFF7AEFE4FF48053D6
:1014BC00BB6007F1080319460C4801F049FC0346D0
:1014CC00002B01D0FFF7A0FE00233B6000237B60C4
:1014DC003B461946054801F01FFE0346002B01D080
:1014EC00FFF792FE00BF1837BD4680BD6401002097
:1014FC0080B586B000AF07F1080300221A605A606D
:10150C009A60DA603B4600221A605A601D4B1E4AF4
:10151C001A601C4B47225A601A4B00229A60194BD6
:10152C0040F2E732DA60174B00221A61154B0022A9
:10153C009A61144801F018FA0346002B01D0FFF70A
:10154C0063FE4FF48053BB6007F1080319460D4846
:10155C0001F0FEFB0346002B01D0FFF755FE0023E4
:10156C003B6000237B603B461946064801F0D4FDE6
:10157C000346002B01D0FFF747FE00BF1837BD46CE
:10158C0080BD00BFAC0100200004004080B584B0D9
:10159C0000AF78607B681B68B3F1804F0CD1154BA2
:1015AC00DB69144A43F00103D361124BDB6903F08E
:1015BC000103FB60FB6818E07B681B680E4A9342D2
:1015CC0013D10C4BDB690B4A43F00203D361094B7B
:1015DC00DB6903F00203BB60BB68002200211D2005
:1015EC0000F08FF91D2000F0A8F900BF1037BD46A0
:1015FC0080BD00BF0010024000040040FFF726FF32
:10160C000B480C490C4A002302E0D458C450043354
:10161C00C4188C42F9D3094A094C002301E0136029
:10162C000432A242FBD302F06DFEFFF7CDFB7047F4
:10163C00000000207C0000202052000880000020C8
:10164C0040060020FEE7000080B500AF084B1B6889
:10165C00074A43F010031360032000F047F90F20F2
:10166C0000F008F8FFF708FE0023184680BD00BF05
:10167C000020024080B582B000AF7860124B1A682F
:10168C00124B1B7819464FF47A73B3FBF1F3B2FB90
:10169C00F3F3184600F05FF90346002B01D0012349
:1016AC000EE07B680F2B0AD8002279684FF0FF30D0
:1016BC0000F027F9064A7B681360002300E0012341
:1016CC0018460837BD4680BD0C00002014000020D1
:1016DC001000002080B400AF054B1B781A46054B58
:1016EC001B681344034A136000BFBD4680BC70479F
:1016FC0014000020F401002080B400AF024B1B68E2
:10170C001846BD4680BC7047F401002080B584B0FB
:10171C0000AF7860FFF7F0FFB8607B68FB60FB6898
:10172C00B3F1FF3F05D00A4B1B781A46FB681344F4
:10173C00FB6000BFFFF7E0FF0246BB68D31AFA68F4
:10174C009A42F7D800BF00BF1037BD4680BD00BF1E
:10175C001400002080B485B000AF78607B6803F083
:10176C000703FB600C4BDB68BB60BA684FF6FF03EA
:10177C001340BB60FB681A02BB68134343F0BF63A2
:10178C0043F40033BB60044ABB68D36000BF14371A
:10179C00BD4680BC704700BF00ED00E080B400AFD8
:1017AC00044BDB681B0A03F007031846BD4680BCDC
:1017BC00704700BF00ED00E080B483B000AF03467B
:1017CC00FB7197F90730002B0BDBFB7903F01F0241
:1017DC00064997F907305B09012000FA02F241F83B
:1017EC00232000BF0C37BD4680BC704700E100E0F1
:1017FC0080B483B000AF03463960FB7197F90730B2
:10180C00002B0ADB3B68DAB20C4997F9073012015E
:10181C00D2B20B4483F800230AE03B68DAB20849E1
:10182C00FB7903F00F03043B1201D2B20B441A767E
:10183C0000BF0C37BD4680BC704700BF00E100E024
:10184C0000ED00E080B489B000AFF860B9607A6058
:10185C00FB6803F00703FB61FB69C3F10703042B6F
:10186C0028BF0423BB61FB690433062B02D9FB6937
:10187C00033B00E000237B614FF0FF32BB6902FAAF
:10188C0003F3DA43BB681A407B699A404FF0FF318F
:10189C007B6901FA03F3D9437B680B401343184669
:1018AC002437BD4680BC704780B582B000AF7860ED
:1018BC007B68013BB3F1807F01D301230FE00A4A1F
:1018CC007B68013B53600F214FF0FF30FFF790FF17
:1018DC00054B00229A60044B07221A60002318461D
:1018EC000837BD4680BD00BF10E000E080B582B077
:1018FC0000AF78607868FFF72DFF00BF0837BD4652
:10190C0080BD80B586B000AF0346B9607A60FB73CA
:10191C0000237B61FFF742FF78617A68B9687869C8
:10192C00FFF790FF024697F90F3011461846FFF764
:10193C005FFF00BF1837BD4680BD80B582B000AFD9
:10194C000346FB7197F907301846FFF735FF00BFC8
:10195C000837BD4680BD80B582B000AF786078682E
:10196C00FFF7A2FF034618460837BD4680BD0000AE
:10197C00F0B587B000AFF860B960C7E90023012368
:10198C00FB750023BB7500237B752F4B1B7E012B36
:10199C0001D1022354E02C4B01221A764CF2503028
:1019AC0000F0A8F80346FB75FB7D002B44D1FB68C7
:1019BC00012B02D101237B7507E0FB68022B02D1BE
:1019CC0002237B7501E004237B750023BB752DE09E
:1019DC00BB7D5A00BB6802EB030CBB7D1901D7E938
:1019EC000023C1F12006A1F1200022FA01F403FA30
:1019FC0006F6344323FA00F0044323FA01F5A3B2AC
:101A0C001946604600F05AF84CF2503000F072F86B
:101A1C000346FB750D4B1B690C4A23F00103136144
:101A2C00FB7D002B07D1BB7D0133BB75BA7D7B7D64
:101A3C009A42CDD300E000BF034B00221A76FB7D07
:101A4C0018461C37BD46F0BDF801002000200240AE
:101A5C0080B483B000AF0023FB710D4B1B6903F006
:101A6C008003002B0DD00A4B0A4A5A60084B0A4AD5
:101A7C005A60074B1B6903F08003002B01D0012334
:101A8C00FB71FB7918460C37BD4680BC704700BF14
:101A9C000020024023016745AB89EFCD80B400AF35
:101AAC00054B1B69044A43F080031361002318465D
:101ABC00BD4680BC704700BF0020024080B483B09C
:101ACC0000AF78600B467B80084B0022DA61084B34
:101ADC001B69074A43F0010313617B687A881A80FB
:101AEC0000BF0C37BD4680BC704700BFF80100201A
:101AFC000020024080B584B000AF7860FFF7FCFD99
:101B0C00F86010E07B68B3F1FF3F0CD07B68002BD2
:101B1C0007D0FFF7F1FD0246FB68D31A7A689A42A8
:101B2C0001D2032325E0154BDB6803F00103002BE6
:101B3C00E8D1124BDB6803F02003002B02D00F4BD3
:101B4C002022DA600D4BDB6803F01003002B0BD165
:101B5C000A4BDB6903F00103002B05D1074BDB6853
:101B6C0003F00403002B03D000F00AF8012300E07B
:101B7C00002318461037BD4680BD00BF0020024030
:101B8C0080B483B000AF00237B60234BDB6803F091
:101B9C001003002B09D0214BDB6943F002031F4AD1
:101BAC00D3617B6843F010037B601B4BDB6803F055
:101BBC000403002B09D0194BDB6943F00103174ACE
:101BCC00D3617B6843F004037B60134BDB6903F048
:101BDC000103002B0BD0114BDB6943F004030F4ABC
:101BEC00D3610D4BDB690C4A23F00103D3617B6895
:101BFC0040F20112934206D1074BDB69064A23F0EF
:101C0C000103D36102E0044A7B68D36000BF0C3748
:101C1C00BD4680BC704700BF00200240F801002088
:101C2C0080B584B000AF786039600123FB7300236A
:101C3C00BB602F4B1B7E012B01D1022353E02C4B9D
:101C4C0001221A767B681B68022B16D14CF250309D
:101C5C00FFF750FF0346002B41D1012000F04CF858
:101C6C004CF25030FFF746FF0346FB73214B1B69C8
:101C7C00204A23F00403136131E04CF25030FFF79B
:101C8C0039FF0346002B2AD13B684FF0FF321A6014
:101C9C007B689B68BB6019E0B86800F049F84CF2AF
:101CAC005030FFF727FF0346FB73124B1B69114A99
:101CBC0023F002031361FB7B002B03D03B68BA6853
:101CCC001A600CE0BB6803F58063BB607B68DB6863
:101CDC009A027B689B681344BA689A42DCD3044B23
:101CEC0000221A76FB7B18461037BD4680BD00BF1C
:101CFC00F80100200020024080B483B000AF78606F
:101D0C00094B0022DA61094B1B69084A43F00403B2
:101D1C001361064B1B69054A43F04003136100BF76
:101D2C000C37BD4680BC7047F801002000200240F3
:101D3C0080B483B000AF78600B4B0022DA610B4BA0
:101D4C001B690A4A43F002031361084A7B6853611A
:101D5C00064B1B69054A43F04003136100BF0C3767
:101D6C00BD4680BC704700BFF80100200020024037
:101D7C0080B48BB000AF7860396000237B620023A5
:101D8C003B6269E101227B6A02FA03F3FB613B6867
:101D9C001B68FA691340BB61BA69FB699A4240F04F
:101DAC0058813B685B689A4A93425ED0984A93424A
:101DBC0075D8984A934258D0964A93426FD8964A0F
:101DCC00934252D0944A934269D8944A93424CD04D
:101DDC00924A934263D8924A934246D0904A934295
:101DEC005DD8122B2AD8122B59D801A252F823F005
:101DFC00771E0008511E0008631E0008A51E00086F
:101E0C00AB1E0008AB1E0008AB1E0008AB1E000882
:101E1C00AB1E0008AB1E0008AB1E0008AB1E000872
:101E2C00AB1E0008AB1E0008AB1E0008AB1E000862
:101E3C00AB1E0008591E00086D1E0008794A93421B
:101E4C0013D02CE03B68DB683B6229E03B68DB6825
:101E5C0004333B6224E03B68DB6808333B621FE0E1
:101E6C003B68DB680C333B621AE03B689B68002BD9
:101E7C0002D104233B6213E03B689B68012B05D124
:101E8C0008233B627B68FA691A6109E008233B620C
:101E9C007B68FA695A6103E000233B6200E000BFF3
:101EAC00BB69FF2B01D87B6801E07B6804337B6145
:101EBC00BB69FF2B02D87B6A9B0002E07B6A083B64
:101ECC009B003B617B691A680F213B6901FA03F3A4
:101EDC00DB431A40396A3B6901FA03F31A437B6905
:101EEC001A603B685B6803F08053002B00F0B180F4
:101EFC004D4B9B694C4A43F0010393614A4B9B69E0
:101F0C0003F00103BB60BB68484A7B6A9B08023341
:101F1C0052F82330FB607B6A03F003039B000F2213
:101F2C0002FA03F3DB43FA681340FB607B68404A18
:101F3C00934213D07B683F4A93420DD07B683E4A54
:101F4C00934207D07B683D4A934201D1032306E0BC
:101F5C00042304E0022302E0012300E000237A6A58
:101F6C0002F0030292009340FA681343FB602F497E
:101F7C007B6A9B080233FA6841F823203B685B6854
:101F8C0003F48013002B06D02D4B9A682C49BB69A7
:101F9C0013438B6006E02A4B9A68BB69DB432849E4
:101FAC0013408B603B685B6803F40013002B06D076
:101FBC00234BDA682249BB691343CB6006E0204B04
:101FCC00DA68BB69DB431E491340CB603B685B6836
:101FDC0003F40033002B06D0194B5A681849BB691F
:101FEC0013434B6006E0164B5A68BB69DB4314493C
:101FFC0013404B603B685B6803F48033002B21D0AB
:10200C000F4B1A680E49BB6913430B6021E000BFEC
:10201C0000003210000031100000221000002110CE
:10202C0000001210000011100010024000000140CE
:10203C0000080140000C0140001001400014014058
:10204C00000401400B4B1A68BB69DB430949134080
:10205C000B607B6A01337B623B681A687B6A22FAED
:10206C0003F3002B7FF48EAE00BF00BF2C37BD46B0
:10207C0080BC70470004014080B485B000AF78602C
:10208C000B467B807B689A687B881340002B02D0C0
:10209C000123FB7301E00023FB73FB7B1846143711
:1020AC00BD4680BC704780B483B000AF78600B46EF
:1020BC007B8013467B707B78002B03D07A887B68FF
:1020CC001A6103E07B881A047B681A6100BF0C3725
:1020DC00BD4680BC7047000080B582B000AF03469F
:1020EC00FB80084B5A69FB881340002B06D0054A2D
:1020FC00FB885361FB881846FEF7E4FF00BF0837E6
:10210C00BD4680BD0004014080B584B000AF78604E
:10211C007B68002B01D1012334E07B681B684CF6F3
:10212C00CC421A607B681B6845F255521A607B687A
:10213C001B687A6852685A607B681B687A68926878
:10214C009A60FFF7D9FAF8600FE0FFF7D5FA02466C
:10215C00FB68D31A272B08D97B681B68DB6803F054
:10216C000303002B01D003230CE07B681B68DB68A6
:10217C0003F00303002BE8D17B681B684AF6AA2204
:10218C001A60002318461037BD4680BD80B483B05A
:10219C0000AF78607B681B684AF6AA221A6000239D
:1021AC0018460C37BD4680BC7047000080B586B021
:1021BC0000AF78607B68002B01D1012372E27B6851
:1021CC001B6803F00103002B00F08780924B5B68C7
:1021DC0003F00C03042B0CD08F4B5B6803F00C0347
:1021EC00082B12D18C4B5B6803F48033B3F5803F22
:1021FC000BD1894B1B6803F40033002B6CD07B682C
:10220C005B68002B68D101234CE27B685B68B3F5FB
:10221C00803F06D1804B1B687F4A43F480331360A8
:10222C002EE07B685B68002B0CD17B4B1B687A4AD9
:10223C0023F480331360784B1B68774A23F4802394
:10224C0013601DE07B685B68B3F5A02F0CD1724B5B
:10225C001B68714A43F4802313606F4B1B686E4AF2
:10226C0043F4803313600BE06B4B1B686A4A23F416
:10227C0080331360684B1B68674A23F48023136018
:10228C007B685B68002B13D0FFF736FA386108E0E7
:10229C00FFF732FA02463B69D31A642B01D90323A8
:1022AC0000E25D4B1B6803F40033002BF0D014E00C
:1022BC00FFF722FA386108E0FFF71EFA02463B6985
:1022CC00D31A642B01D90323ECE1534B1B6803F4A1
:1022DC000033002BF0D100E000BF7B681B6803F0DB
:1022EC000203002B63D04C4B5B6803F00C03002BF8
:1022FC000BD0494B5B6803F00C03082B1CD1464BED
:10230C005B6803F48033002B16D1434B1B6803F03E
:10231C000203002B05D07B681B69012B01D0012324
:10232C00C0E13D4B1B6823F0F8027B685B69DB0066
:10233C00394913430B603AE07B681B69002B20D0B2
:10234C00364B01221A60FFF7D7F9386108E0FFF726
:10235C00D3F902463B69D31A022B01D90323A1E11D
:10236C002D4B1B6803F00203002BF0D02A4B1B688B
:10237C0023F0F8027B685B69DB00274913430B6091
:10238C0015E0264B00221A60FFF7B6F9386108E019
:10239C00FFF7B2F902463B69D31A022B01D903238A
:1023AC0080E11D4B1B6803F00203002BF0D17B680E
:1023BC001B6803F00803002B3AD07B689B69002B49
:1023CC0019D0174B01221A60FFF796F9386108E013
:1023DC00FFF792F902463B69D31A022B01D903236A
:1023EC0060E10D4B5B6A03F00203002BF0D001207F
:1023FC0000F09CFA1CE00A4B00221A60FFF77CF9F3
:10240C0038610FE0FFF778F902463B69D31A022BCB
:10241C0008D9032346E100BF0010024000004242ED
:10242C0080044242924B5B6A03F00203002BE9D119
:10243C007B681B6803F00403002B00F0A6800023CC
:10244C00FB758B4BDB6903F08053002B0DD1884B54
:10245C00DB69874A43F08053D361854BDB6903F01A
:10246C008053BB60BB680123FB75824B1B6803F474
:10247C008073002B18D17F4B1B687E4A43F480730A
:10248C001360FFF739F9386108E0FFF735F90246B8
:10249C003B69D31A642B01D9032303E1754B1B68E9
:1024AC0003F48073002BF0D07B68DB68012B06D122
:1024BC006F4B1B6A6E4A43F0010313622DE07B687D
:1024CC00DB68002B0CD16A4B1B6A694A23F00103B1
:1024DC001362674B1B6A664A23F0040313621CE009
:1024EC007B68DB68052B0CD1614B1B6A604A43F09F
:1024FC00040313625E4B1B6A5D4A43F001031362D3
:10250C000BE05B4B1B6A5A4A23F001031362584BD6
:10251C001B6A574A23F0040313627B68DB68002BA9
:10252C0015D0FFF7E9F838610AE0FFF7E5F8024645
:10253C003B69D31A41F28832934201D90323B1E0AB
:10254C004B4B1B6A03F00203002BEED014E0FFF799
:10255C00D3F838610AE0FFF7CFF802463B69D31A8B
:10256C0041F28832934201D903239BE0404B1B6A12
:10257C0003F00203002BEED1FB7D012B05D13C4B6C
:10258C00DB693B4A23F08053D3617B68DB69002B0A
:10259C0000F08780364B5B6803F00C03082B61D08E
:1025AC007B68DB69022B46D1334B00221A60FFF7A4
:1025BC00A3F8386108E0FFF79FF802463B69D31A8D
:1025CC00022B01D903236DE0294B1B6803F0007328
:1025DC00002BF0D17B681B6AB3F5803F08D1244BEC
:1025EC005B6823F400327B689B68214913434B6082
:1025FC001F4B5B6823F474127B68196A7B685B6AF7
:10260C000B431B4913434B601B4B01221A60FFF712
:10261C0073F8386108E0FFF76FF802463B69D31A8C
:10262C00022B01D903233DE0114B1B6803F000730F
:10263C00002BF0D035E0104B00221A60FFF75CF84D
:10264C00386108E0FFF758F802463B69D31A022BB1
:10265C0001D9032326E0064B1B6803F00073002B03
:10266C00F0D11EE07B68DB69012B07D1012319E057
:10267C000010024000700040600042420B4B5B684F
:10268C00FB60FB6803F480327B681B6A9A4206D1BC
:10269C00FB6803F470127B685B6A9A4201D00123D9
:1026AC0000E0002318461837BD4680BD00100240DC
:1026BC0080B584B000AF786039607B68002B01D1A5
:1026CC000123D0E06A4B1B6803F007033A689A4277
:1026DC0010D9674B1B6823F0070265493B6813430D
:1026EC000B60634B1B6803F007033A689A4201D0F6
:1026FC000123B8E07B681B6803F00203002B20D099
:10270C007B681B6803F00403002B05D0594B5B68F6
:10271C00584A43F4E06353607B681B6803F008037A
:10272C00002B05D0534B5B68524A43F46053536003
:10273C00504B5B6823F0F0027B689B684D49134358
:10274C004B607B681B6803F00103002B40D07B6857
:10275C005B68012B07D1474B1B6803F40033002B3C
:10276C0015D101237FE07B685B68022B07D1414BBD
:10277C001B6803F00073002B09D1012373E03D4B60
:10278C001B6803F00203002B01D101236BE0394BD2
:10279C005B6823F003027B685B68364913434B602C
:1027AC00FEF7AAFFF8600AE0FEF7A6FF0246FB68F8
:1027BC00D31A41F28832934201D9032353E02D4BB3
:1027CC005B6803F00C027B685B689B009A42EBD160
:1027DC00274B1B6803F007033A689A4210D2244B2C
:1027EC001B6823F0070222493B6813430B60204B04
:1027FC001B6803F007033A689A4201D0012332E0C8
:10280C007B681B6803F00403002B08D0194B5B6832
:10281C0023F4E0627B68DB68164913434B607B68EA
:10282C001B6803F00803002B09D0124B5B6823F4E0
:10283C0060527B681B69DB000E4913434B6000F050
:10284C0021F802460B4B5B681B0903F00F030A4986
:10285C00CB5C22FA03F3094A1360094B1B68184638
:10286C00FEF708FF002318461037BD4680BD00BF99
:10287C000020024000100240B85100080C0000205B
:10288C001000002080B487B000AF0023FB60002351
:10289C00BB6000237B6100237B6000233B611E4BEC
:1028AC005B68FB60FB6803F00C03042B02D0082B65
:1028BC0003D027E0194B3B6127E0FB689B0C03F02E
:1028CC000F03174AD35C7B60FB6803F48033002B47
:1028DC0010D0114B5B685B0C03F00103114AD35C05
:1028EC00BB607B680D4A03FB02F2BB68B2FBF3F3DF
:1028FC007B6104E07B680C4A02FB03F37B617B6920
:10290C003B6102E0054B3B6100BF3B6918461C373D
:10291C00BD4680BC704700BF0010024000127A0018
:10292C00C8510008D851000800093D0080B485B09A
:10293C0000AF78600A4B1B680A4AA2FB03235B0AB0
:10294C007A6802FB03F3FB6000BFFB685A1EFA6057
:10295C00002BF9D100BF00BF1437BD4680BC7047B7
:10296C000C000020D34D621080B582B000AF7860AF
:10297C007B68002B01D1012341E07B6893F83D304B
:10298C00DBB2002B06D17B68002283F83C207868F0
:10299C00FEF7FCFD7B68022283F83D207B681A68F9
:1029AC007B6804331946104600F0BEFA7B6801229E
:1029BC0083F846207B68012283F83E207B68012245
:1029CC0083F83F207B68012283F840207B6801223A
:1029DC0083F841207B68012283F842207B68012226
:1029EC0083F843207B68012283F844207B68012212
:1029FC0083F845207B68012283F83D20002318468C
:102A0C000837BD4680BD000080B485B000AF78604B
:102A1C007B6893F83D30DBB2012B01D0012332E00F
:102A2C007B68022283F83D207B681B68184A93421E
:102A3C000ED07B681B68B3F1804F09D07B681B6894
:102A4C00144A934204D07B681B68134A934211D1F9
:102A5C007B681B689B6803F00703FB60FB68062B15
:102A6C0010D07B681B681A687B681B6842F00102F7
:102A7C001A6007E07B681B681A687B681B6842F069
:102A8C0001021A60002318461437BD4680BC7047FB
:102A9C00002C0140000400400008004080B485B0C8
:102AAC0000AF78607B6893F83D30DBB2012B01D02E
:102ABC0001233AE07B68022283F83D207B681B6887
:102ACC00DA687B681B6842F00102DA607B681B687D
:102ADC00184A93420ED07B681B68B3F1804F09D023
:102AEC007B681B68144A934204D07B681B68134AAA
:102AFC00934211D17B681B689B6803F00703FB6052
:102B0C00FB68062B10D07B681B681A687B681B68F7
:102B1C0042F001021A6007E07B681B681A687B6848
:102B2C001B6842F001021A60002318461437BD4698
:102B3C0080BC7047002C014000040040000800409D
:102B4C0080B582B000AF78607B681B681B6903F0AE
:102B5C000203022B22D17B681B68DB6803F00203A3
:102B6C00022B1BD17B681B686FF002021A617B6819
:102B7C0001221A777B681B689B6903F00303002B07
:102B8C0003D0786800F0B4F905E0786800F0A7F994
:102B9C00786800F0B6F97B6800221A777B681B68AE
:102BAC001B6903F00403042B22D17B681B68DB68D0
:102BBC0003F00403042B1BD17B681B686FF0040229
:102BCC001A617B6802221A777B681B689B6903F485
:102BDC004073002B03D0786800F08AF905E0786820
:102BEC0000F07DF9786800F08CF97B6800221A7788
:102BFC007B681B681B6903F00803082B22D17B68D8
:102C0C001B68DB6803F00803082B1BD17B681B686F
:102C1C006FF008021A617B6804221A777B681B68C4
:102C2C00DB6903F00303002B03D0786800F060F934
:102C3C0005E0786800F053F9786800F062F97B6879
:102C4C0000221A777B681B681B6903F01003102B9A
:102C5C0022D17B681B68DB6803F01003102B1BD19F
:102C6C007B681B686FF010021A617B6808221A7768
:102C7C007B681B68DB6903F44073002B03D0786816
:102C8C0000F036F905E0786800F029F9786800F072
:102C9C0038F97B6800221A777B681B681B6903F084
:102CAC000103012B0ED17B681B68DB6803F0010369
:102CBC00012B07D17B681B686FF001021A617868E1
:102CCC00FEF766FA7B681B681B6903F08003802B98
:102CDC000ED17B681B68DB6803F08003802B07D167
:102CEC007B681B686FF080021A61786800F07BFAD1
:102CFC007B681B681B6903F04003402B0ED17B687B
:102D0C001B68DB6803F04003402B07D17B681B6812
:102D1C006FF040021A61786800F0FCF87B681B6861
:102D2C001B6903F02003202B0ED17B681B68DB682A
:102D3C0003F02003202B07D17B681B686FF0200267
:102D4C001A61786800F046FA00BF0837BD4680BDAE
:102D5C0080B584B000AF786039600023FB737B686A
:102D6C0093F83C30012B01D10223B4E07B680122A3
:102D7C0083F83C207B68022283F83D207B681B682B
:102D8C009B68BB60BB6823F07703BB60BB6823F414
:102D9C007F43BB607B681B68BA689A603B681B68A2
:102DAC00B3F5005F3ED0B3F5005F00F28780B3F55A
:102DBC00805F00F08680B3F5805F7FD8702B1AD0CF
:102DCC00702B7BD8602B50D0602B77D8502B3CD0FD
:102DDC00502B73D8402B58D0402B6FD8302B64D04D
:102DEC00302B6BD8202B60D0202B67D8002B5CD0DD
:102DFC00102B5AD062E07B6818683B6899683B6876
:102E0C005A683B68DB6800F068F97B681B689B6854
:102E1C00BB60BB6843F07703BB607B681B68BA6818
:102E2C009A604FE07B6818683B6899683B685A6801
:102E3C003B68DB6800F051F97B681B689A687B681B
:102E4C001B6842F480429A603CE07B6818683B68DF
:102E5C0059683B68DB681A4600F0C8F87B681B6849
:102E6C005021184600F01FF92CE07B6818683B686D
:102E7C0059683B68DB681A4600F0E6F87B681B680B
:102E8C006021184600F00FF91CE07B6818683B685D
:102E9C0059683B68DB681A4600F0A8F87B681B6829
:102EAC004021184600F0FFF80CE07B681A683B687C
:102EBC001B681946104600F0F6F803E00123FB737B
:102ECC0000E000BF7B68012283F83D207B68002274
:102EDC0083F83C20FB7B18461037BD4680BD80B480
:102EEC0083B000AF786000BF0C37BD4680BC704724
:102EFC0080B483B000AF786000BF0C37BD4680BC97
:102F0C00704780B483B000AF786000BF0C37BD460B
:102F1C0080BC704780B483B000AF786000BF0C37C2
:102F2C00BD4680BC7047000080B485B000AF7860AF
:102F3C0039607B681B68FB607B68294A93420BD025
:102F4C007B68B3F1804F07D07B68264A934203D04D
:102F5C007B68254A934208D1FB6823F07003FB6021
:102F6C003B685B68FA681343FB607B681C4A9342BE
:102F7C000BD07B68B3F1804F07D07B68194A934222
:102F8C0003D07B68184A934208D1FB6823F4407342
:102F9C00FB603B68DB68FA681343FB60FB6823F05B
:102FAC0080023B685B691343FB607B68FA681A60BC
:102FBC003B689A687B68DA623B681A687B689A623D
:102FCC007B68074A934203D13B681A697B681A6392
:102FDC007B6801225A6100BF1437BD4680BC704724
:102FEC00002C0140000400400008004080B487B071
:102FFC0000AFF860B9607A60FB681B6A7B61FB68A4
:10300C001B6A23F00102FB681A62FB689B693B6137
:10301C003B6923F0F0033B617B681B013A69134366
:10302C003B617B6923F00A037B617A69BB681343BC
:10303C007B61FB683A699A61FB687A691A6200BF26
:10304C001C37BD4680BC704780B487B000AFF860B9
:10305C00B9607A60FB681B6A7B61FB681B6A23F0B2
:10306C001002FB681A62FB689B693B613B6923F4A5
:10307C0070433B617B681B033A6913433B617B697B
:10308C0023F0A0037B61BB681B017A6913437B614E
:10309C00FB683A699A61FB687A691A6200BF1C374F
:1030AC00BD4680BC704780B485B000AF7860396095
:1030BC007B689B68FB60FB6823F07003FB603A68DD
:1030CC00FB68134343F00703FB607B68FA689A6064
:1030DC0000BF1437BD4680BC704780B487B000AFCA
:1030EC00F860B9607A603B60FB689B687B617B69C8
:1030FC0023F47F437B613B681A027B681A43BB68ED
:10310C0013437A6913437B61FB687A699A6000BF49
:10311C001C37BD4680BC704780B485B000AF78606A
:10312C0039607B6893F83C30012B01D1022346E0D7
:10313C007B68012283F83C207B68022283F83D20C7
:10314C007B681B685B68FB607B681B689B68BB606B
:10315C00FB6823F07003FB603B681B68FA68134341
:10316C00FB607B681B68FA685A607B681B68164AB0
:10317C0093420ED07B681B68B3F1804F09D07B68FB
:10318C001B68124A934204D07B681B68104A934216
:10319C000CD1BB6823F08003BB603B685B68BA68EA
:1031AC001343BB607B681B68BA689A607B6801221A
:1031BC0083F83D207B68002283F83C2000231846CE
:1031CC001437BD4680BC7047002C01400004004001
:1031DC000008004080B483B000AF786000BF0C37AB
:1031EC00BD4680BC704780B483B000AF786000BF30
:1031FC000C37BD4680BC704780B485B000AF78609A
:10320C000023FB6016E0FB6803F500339B027A6831
:10321C009A420CD3FB6803F500339B0201337A68A6
:10322C009A4204D2FB6803F500339B0206E0FB686C
:10323C000133FB60FB683F2BE5DD00231846143798
:10324C00BD4680BC704780B487B000AFF860B960F1
:10325C001346FB8000237B610EE07B699B001A46C2
:10326C00FB68134419467B699B00BA6813440A68CF
:10327C001A607B6901337B61FB887A699A42ECDBCB
:10328C0000BF00BF1C37BD4680BC7047B0B588B0CE
:10329C0000AFF860B9601346FB8000237B61FEF73A
:1032AC00D7FBF868FFF7A8FFB8611A4B00221A6029
:1032BC00184ABB699360FB889B009B0A0133154A33
:1032CC00D36007F1140319461248FEF7A9FC00233A
:1032DC00FB6114E0FB699B001A46FB68D118FB6983
:1032EC009B00BA6813441B6800221C4615462246F4
:1032FC002B460220FEF73CFBFB690133FB61FB888C
:10330C00FA699A42E6DBFEF7C9FB00BF2037BD46DF
:10331C00B0BD00BF1802002080B584B000AF0346DA
:10332C00FB710023FB601FE0FA79FB6802FA03F3E0
:10333C0003F08003002B05D0012280210E48FEF7FC
:10334C00B2FE04E0002280210B48FEF7ACFE002206
:10335C0020210948FEF7A7FE012220210648FEF78E
:10336C00A2FEFB680133FB60FB68072BDCDD00BFB2
:10337C0000BF1037BD4680BD0008014080B582B04B
:10338C0000AF0346FB71012240210F48FEF78BFE74
:10339C00F820FFF7C1FFFB7923F00F03DBB21846CF
:1033AC00FFF7BAFFFB791B01DBB21846FFF7B4FF3E
:1033BC00322000F0DFFC002240210348FEF773FEB0
:1033CC0000BF0837BD4680BD0008014080B582B003
:1033DC0000AF0346FB71012240210F48FEF763FE4C
:1033EC00FA20FFF799FFFB7923F00F03DBB21846A5
:1033FC00FFF792FFFB791B01DBB21846FFF78CFF3E
:10340C00322000F0B7FC002240210348FEF74BFEAF
:10341C0000BF0837BD4680BD0008014080B584B0B0
:10342C0000AFF860B9607A60FB68032B1ED801A26C
:10343C0052F823F0513400085B340008653400085E
:10344C006F340008BB6843F08003BB6013E0BB68BB
:10345C0043F09003BB600EE0BB6843F08803BB6095
:10346C0009E0BB6843F09803BB6004E0BB6843F021
:10347C008003BB6000BFBB68DBB21846FFF77EFF62
:10348C0006E07B685A1C7A601B781846FFF79EFF93
:10349C007B681B78002BF4D100BF00BF1037BD46F2
:1034AC0080BD00BF80B582B000AF78607B68012B17
:1034BC0015D13020FFF762FF0120FEF727F93420E9
:1034CC00FFF75CFF0120FEF721F93620FFF756FFCE
:1034DC000120FEF71BF90A4B01221A700BE07B68E6
:1034EC00002B08D13020FFF749FF0120FEF70EF921
:1034FC00034B00221A7000BF0837BD4680BD00BFC9
:10350C002C02002080B584B000AF78600023BB7320
:10351C006AE0BB7B1F2B30D80023FB7329E0BB7BFD
:10352C0063F07F03DBB21846FFF728FFFB7B63F0E9
:10353C007F03DBB21846FFF721FFFA7BBB7BDB0076
:10354C0013445B001A467B6813441B781846FFF73C
:10355C003DFFFB7B5B005A1CBB7B1B0113441A46D3
:10356C007B6813441B781846FFF730FFFB7B013355
:10357C00FB73FB7B072BD2D933E00023FB732DE0CD
:10358C00BB7B203BDBB25BB263F07F035BB2DBB295
:10359C001846FFF7F3FEFB7B63F07703DBB21846AC
:1035AC00FFF7ECFEFA7BBB7BDB0013445B001A4697
:1035BC007B6813441B781846FFF708FFFB7B5B0006
:1035CC005A1CBB7B1B0113441A467B6813441B78A3
:1035DC001846FFF7FBFEFB7B0133FB73FB7B072BD2
:1035EC00CED9BB7B0133BB73BB7B3F2B91D900BFC7
:1035FC0000BF1037BD4680BD80B500AF0248FFF755
:10360C0081FF00BF80BD00BF3002002080B500AF3D
:10361C004FF480620021024800F098FE00BF80BD8C
:10362C003002002080B582B000AF214B1B78012BFB
:10363C0034D10023BB712DE0BB791F2B0AD8BB7989
:10364C0063F07F03DBB21846FFF798FE8020FFF78C
:10365C0095FE0DE0BB79203BDBB25BB263F07F03E0
:10366C005BB2DBB21846FFF789FE8820FFF786FEB7
:10367C000023FB7108E00020FFF7A8FE0020FFF7F5
:10368C00A5FEFB790133FB71FB79072BF3D9BB79D1
:10369C000133BB71BB793F2BCED905E00120FFF77D
:1036AC006DFE0220FEF732F800BF0837BD4680BD24
:1036BC002C02002080B500AF002201211C48FEF72F
:1036CC00F2FC0A20FEF722F8012201211848FEF72D
:1036DC00EAFC3220FEF71AF83020FFF74FFE6E207E
:1036EC0000F048FB3020FFF749FE282000F042FB99
:1036FC000820FFF743FE6E2000F03CFB0120FFF793
:10370C003DFE0C20FEF702F80620FFF737FE0120E5
:10371C00FDF7FCFF0C20FFF731FE0120FDF7F6FF53
:10372C000220FFF72BFE0120FDF7F0FF00BF80BD4C
:10373C00000C014080B485B000AF03460A46FB7113
:10374C001346BB71294B1B78BA799A4248D2284B45
:10375C001B78FA799A4243D2BB79254A1278D2085F
:10376C00D2B202FB03F3FA79D208D2B213441A464E
:10377C00204B1344FB60FB681A78FB7903F00703BA
:10378C00802121FA03F3DBB21343DAB2FB681A701F
:10379C00FB681A78174B1A70174B1B78BA799A4238
:1037AC0002D2154ABB791370144B1B78BA799A4222
:1037BC0004D3BB790133DAB2104B1A70104B1B785F
:1037CC00FA799A4202D20E4AFB7913700D4B1B7890
:1037DC00FA799A4204D3FB790133DAB2094B1A70A5
:1037EC0000BF1437BD4680BC704700BF15000020D9
:1037FC001600002030020020280200202A0200209F
:10380C00290200202B02002090B589B000AF04469D
:10381C00084611461A462346FB710346BB710B46FC
:10382C007B7113463B717A79FB799A4203D37A798F
:10383C00FB79D31A02E0FA797B79D31ABB613A7916
:10384C00BB799A4203D33A79BB79D31A02E0BA799D
:10385C003B79D31A7B61FA797B799A4201D20123A5
:10386C0001E04FF0FF333B61BA793B799A4201D2C8
:10387C00012301E04FF0FF33FB60BA697B69D31A77
:10388C00FB61BA79FB7911461846FFF753FFFA79B9
:10389C007B799A4203D1BA793B799A421ED0FB6963
:1038AC005B00BB607B695B42BA689A4208DDFA69CF
:1038BC007B69D31AFB613B69DAB2FB791344FB7168
:1038CC00BA68BB699A42DCDAFA69BB691344FB61DA
:1038DC00FB68DAB2BB791344BB71D2E700BF00BFFF
:1038EC002437BD4690BD000090B583B000AF0446B0
:1038FC00084611461A462346FB800346BB800B46FE
:10390C007B8013463B803B4B1B789BB2FA889A42D8
:10391C006BD2394B1B789BB2BA889A4265D2FA8823
:10392C007B881344334A1278934205DB314B1B7866
:10393C009AB2FB88D31A7B80BA883B8813442E4AF0
:10394C001278934205DB2C4B1B789AB2BB88D31AA6
:10395C003B80FB88D8B2BB88D9B2FB88DAB27B88B3
:10396C00DBB21344DAB2BB88DBB2FFF74DFFFB8846
:10397C00D8B2BB88DAB23B88DBB21344D9B2FB882D
:10398C00DAB27B88DBB21344DCB2BB88DAB23B8898
:10399C00DBB21344DBB22246FFF736FFFB88D8B20A
:1039AC00BB88D9B2FB88DCB2BB88DAB23B88DBB20D
:1039BC001344DBB22246FFF727FFFB88DAB27B8881
:1039CC00DBB21344D8B2BB88D9B2FB88DAB27B889D
:1039DC00DBB21344DCB2BB88DAB23B88DBB21344F3
:1039EC00DBB22246FFF710FF00E000BF0C37BD46EC
:1039FC0090BD00BF160000201500002090B585B0CA
:103A0C0000AF0446084611461A462346FB8003467F
:103A1C00BB800B467B8013463B80254B1B789BB2AF
:103A2C00FA889A4240D2234B1B789BB2BA889A42AE
:103A3C003AD2FA887B8813441D4A1278934205DBEC
:103A4C001B4B1B789AB2FB88D31A7B80BA883B88B5
:103A5C001344184A1278934205DB164B1B789AB222
:103A6C00BB88D31A3B800023FB7317E0FB88D8B2CA
:103A7C00BB88DAB2FB7B1344D9B2FB88DAB27B8801
:103A8C00DBB21344DCB2BB88DAB2FB7B1344DBB28F
:103A9C002246FFF7B9FEFB7B0133FB73FB7B9BB22A
:103AAC003A889A42E2D200E000BF1437BD4690BD7E
:103ABC0016000020150000202DE9F04F93B000AF48
:103ACC00396111461A460346FB820B46BB821346EC
:103ADC00FB816B461E463869FCF732FB03463B867E
:103AEC003B8E23F00F039BB21033FB851023BB627C
:103AFC00BB6A7B62BB6A013300223B607A604FF089
:103B0C0000024FF000037968CB00D7E9000184462E
:103B1C0043EA5C730146CA00BB6A013300229A4631
:103B2C0093464FF000024FF000034FEACB0343EAF9
:103B3C005A734FEACA02BB6A01330733DB08DB0056
:103B4C00ADEB030D6B4600333B62BB6AFB61BB6A9A
:103B5C0001330022984691464FF000024FF00003CB
:103B6C004FEAC90343EA58734FEAC802BB6A0133F0
:103B7C0000221C4615464FF000024FF00003EB00EC
:103B8C0043EA5473E200BB6A01330733DB08DB0002
:103B9C00ADEB030D6B460033BB610020FFF782FCDD
:103BAC0000237B86D0E000237B630023BB630023D0
:103BBC00FB630CE03A6AFB6B134420221A70BA695F
:103BCC00FB6B134420221A70FB6B0133FB63FB6B02
:103BDC00102BEFDD3A6ABB6A134400221A70BA69E3
:103BEC00BB6A134400221A700023A7F84030A2E0ED
:103BFC00B7F84030002B09D0B7F8403003F00F0372
:103C0C009BB2002B02D17B6B01337B63B7F8403046
:103C1C00BA6A9A4223DD0023A7F8423012E0B7F8C3
:103C2C0042303A691A44B7F84030C3F10F01B7F883
:103C3C0042300B4411783A6AD154B7F84230013310
:103C4C00A7F84230B7F84020B7F842309A42E6D293
:103C5C00FB8A3A6A00211846FFF7E0FB62E0B7F8EE
:103C6C004030BA6A9A422EDCB7F840203B8E9A421A
:103C7C0029D20023A7F8443019E0B7F840300133BB
:103C8C00BA6A93FBF2F2B96A01FB02F29A1AB7F81C
:103C9C00443013441A463B691A44B7F8443011783F
:103CAC003A6AD154B7F844300133A7F84430B7F826
:103CBC004430BA6A9A42E0DCFB8A3A6A0021184620
:103CCC00FFF7ACFB2EE0BB6B0133BB630023A7F803
:103CDC0046301CE0B7F84620BB6A591EBB6BCB1AAA
:103CEC009A420ADCB7F84620BB6B1A44B7F8463048
:103CFC00396A895CBA69D15404E0B7F84630BA69BC
:103D0C002021D154B7F846300133A7F84630B7F824
:103D1C004630BA6A9A42DDDCFB8ABA690021184641
:103D2C00FFF77CFBFB891846FDF7F0FCB7F8403039
:103D3C000133A7F84030B7F84020FB8D9A427FF64C
:103D4C0057AF7B8E01337B867A8EBB8A9A42FFF407
:103D5C002AAFB54600BF4C37BD46BDE8F08F00001A
:103D6C0080B500AF0248FEF74FFE00BF80BD00BF1C
:103D7C006401002080B483B000AF0346FB80084B85
:103D8C001B6800225A6200BF054B1B685A6AFB88ED
:103D9C009A42F9D300BF00BF0C37BD4680BC7047B8
:103DAC006401002080B483B000AF78607B6800228F
:103DBC009A607B6818460C37BD4680BC704780B54E
:103DCC0082B000AF78607B689B68002B05D07B6865
:103DDC009B6878687968032298477B68184608378F
:103DEC00BD4680BD80B483B000AF78607B689B68B3
:103DFC00002B0CBF01230023DBB218460C37BD4649
:103E0C0080BC704780B582B000AF78607B68184684
:103E1C00FFF7D5FF7B6818460837BD4680BD80B5D7
:103E2C0082B000AF78607B6800229A737B680022B6
:103E3C00DA737B6800221A617B684FF6FF725A6155
:103E4C007B6800229A617B6801229A837B6800223E
:103E5C0083F820207B68002283F821207B680022D5
:103E6C0083F822207B68002283F823207B680022C1
:103E7C0083F824207B68002283F825207B68283374
:103E8C00184600F0FCF97B683833184600F0F7F957
:103E9C007B6818460837BD4680BD80B582B000AF40
:103EAC0078607B6838331846FFF7ACFF7B682833A3
:103EBC001846FFF7A7FF7B6818460837BD4680BD3C
:103ECC0080B584B000AFF860B9603B601346FB80EE
:103EDC00FB68BA681A60FB683A689A60FB68FA88F3
:103EEC009A80FB683A8B9A81FB681A68FB689B88FE
:103EFC0019461046FEF7C0F803461A46FB6883F8CD
:103F0C002220FB689A68FB689B8919461046FEF7CD
:103F1C00B3F803461A46FB6883F8232000BF10371A
:103F2C00BD4680BD80B483B000AF786039607B68DB
:103F3C003A685A6100BF0C37BD4680BC704780B4EC
:103F4C0083B000AF786039607B683A689A6100BFD3
:103F5C000C37BD4680BC704780B483B000AF78602E
:103F6C000B467B807B687A889A8300BF0C37BD46F2
:103F7C0080BC704780B483B000AF78607B681B69ED
:103F8C0018460C37BD4680BC704780B582B000AF78
:103F9C0078607B681B697A68928B1A447B681A611B
:103FAC007B681A697B685B699A4203D97B685A699A
:103FBC007B681A617B682833184600F06DF903465C
:103FCC00002B04D07B682833184600F075F900BF2D
:103FDC000837BD4680BD80B582B000AF78607B6885
:103FEC001B697A68928B934207D97B681B697A6844
:103FFC00928B9A1A7B681A6103E07B689A697B68DA
:10400C001A617B683833184600F046F90346002BDA
:10401C0004D07B683833184600F04EF900BF0837DF
:10402C00BD4680BD80B582B000AF786039603B681A
:10403C001A887B689B889A4206D03B681A887B68F2
:10404C009B899A4240F00A817B6893F822207B6816
:10405C0083F824207B6893F823207B6883F8252041
:10406C007B681A687B689B8819461046FEF704F833
:10407C000346002B14BF01230023DBB2002B04D01A
:10408C007B68012283F8222003E07B68002283F8FE
:10409C0022207B689A687B689B8919461046FDF73D
:1040AC00EBFF0346002B14BF01230023DBB2002BD4
:1040BC0004D07B68012283F8232003E07B68002274
:1040CC0083F823207B6893F824305B005AB27B681A
:1040DC0093F825305BB213435BB2DAB27B689A7704
:1040EC007B6893F822305B005AB27B6893F82330DC
:1040FC005BB213435BB2DAB27B68DA777B689B7F87
:10410C00002B21D17B68DB7F022B0CD17B6893F8D1
:10411C0020300133DAB27B6883F820207B680022E0
:10412C0083F8212081E07B68DB7F012B7DD17B68CC
:10413C0093F821300133DAB27B6883F821207B6855
:10414C00002283F8202070E07B689B7F012B21D11B
:10415C007B68DB7F002B0CD17B6893F8203001331C
:10416C00DAB27B6883F820207B68002283F8212058
:10417C005BE07B68DB7F032B57D17B6893F82130A6
:10418C000133DAB27B6883F821207B68002283F844
:10419C0020204AE07B689B7F022B21D17B68DB7F50
:1041AC00032B0CD17B6893F820300133DAB27B6897
:1041BC0083F820207B68002283F8212035E07B687F
:1041CC00DB7F002B31D17B6893F821300133DAB2DD
:1041DC007B6883F821207B68002283F8202024E070
:1041EC007B689B7F032B20D17B68DB7F012B0CD161
:1041FC007B6893F820300133DAB27B6883F8202097
:10420C007B68002283F821200FE07B68DB7F022B88
:10421C000BD17B6893F821300133DAB27B6883F8D9
:10422C0021207B68002283F820207B6893F82030C3
:10423C00022B07D97868FFF7A8FE7B68002283F869
:10424C0020200BE07B6893F82130022B06D978688C
:10425C00FFF7C1FE7B68002283F8212000BF0837DE
:10426C00BD4680BD80B483B000AF786039607B6898
:10427C003A681A6100BF0C37BD4680BC704780B5E8
:10428C0082B000AF78607B681846FFF78BFD7B68C7
:10429C0018460837BD4680BD80B582B000AF786047
:1042AC007B681846FFF79EFD034683F00103DBB2E3
:1042BC0018460837BD4680BD80B582B000AF786027
:1042CC007B681846FFF78EFD0346002B01D000F0EB
:1042DC0009F87B68DB687A681046984700BF083796
:1042EC00BD4680BD08B500F000F8062008B500F00A
:1042FC0049F90120FDF769F8014B1868704700BFB8
:10430C001800002070B500260C4D0D4C641BA41039
:10431C00A64209D100F0E0FC00260A4D0A4C641BB1
:10432C00A410A64205D170BD55F8043B9847013640
:10433C00EEE755F8043B98470136F2E710520008B7
:10434C00105200081052000818520008034602448C
:10435C00934200D1704703F8011BF9E738B50546C5
:10436C00002940D051F8043C0C1F002BB8BFE418B6
:10437C0000F044F91C4A136833B963601460284692
:10438C00BDE8384000F040B9A34208D92068211894
:10439C008B4201BF19685B6809182160EDE71A466A
:1043AC005B680BB1A342FAD911685018A0420BD12B
:1043BC0020680144501883421160E0D118685B6892
:1043CC00014411605360DAE702D90C232B60D6E765
:1043DC00206821188B4201BF19685B68091821609D
:1043EC0063605460CBE738BD3006002070B50E4ECC
:1043FC000C463168054611B900F08CF83060214646
:10440C00284600F087F8431C0AD0C41C24F003048F
:10441C00A04207D0211A284600F07CF8013001D1C7
:10442C004FF0FF34204670BD340600202DE9F041DA
:10443C00CD1C25F0030508350C2D38BF0C25002D9F
:10444C00074601DBA94205D90C2300263B60304608
:10445C00BDE8F0812E4E00F0D1F833681C4634BB19
:10446C0029463846FFF7C2FF431C04464DD1346839
:10447C002646002E40D123683146384604EB03080B
:10448C0000F048F880453AD1216803356D1A25F0C3
:10449C00030508350C2D38BF0C2538462946FFF787
:1044AC00A5FF01302BD023682B4423600EE022683B
:1044BC00521B1ED40B2A16D96119A342256018BFB2
:1044CC005960636808BF316062514B60384604F133
:1044DC000B0600F099F826F00706231DF21AB6D049
:1044EC009B1BA350B3E76268A3420CBF32605A60B7
:1044FC00ECE723466468B2E734467668B9E70C23E8
:10450C0038463B6000F080F8A1E72560DEE700BF8D
:10451C003006002038B50023054D044608462B60B4
:10452C00FCF75EFF431C02D12B6803B1236038BD3E
:10453C00380600201F2938B504460D4604D9162329
:10454C0003604FF0FF3038BD426C12B152F821308D
:10455C004BB9204600F030F82A4601462046BDE80B
:10456C00384000F017B8012B0AD0591C03D1162380
:10457C0003600120E7E70024284642F825409847CD
:10458C000020E0E7024B01461868FFF7D3BF00BFDD
:10459C001800002038B50023064D04460846114685
:1045AC002B60FCF702FF431C02D12B6803B1236084
:1045BC0038BD00BF38060020FCF7F0BE0EB46FF01B
:1045CC00004100B59CB01DAB029006900791049180
:1045DC000848094953F8042B0591006802A9019376
:1045EC0000F074F80022029B1A701CB05DF804EB0A
:1045FC0003B07047180000200802FFFF014800F0CC
:10460C00FBBA00BF3C060020014800F0F6BA00BF20
:10461C003C0600202DE9F0478E6882469E420C46EF
:10462C0090461F4638D88A8912F4906F32D025688C
:10463C0009690133A5EB010965694B4405EB450597
:10464C0005EBD5756D109D4238BF1D46530531D510
:10465C002946FFF7EBFE064650B90C234FF0FF300E
:10466C00CAF80030A38943F04003A381BDE8F0876A
:10467C004A46216900F0D0FAA38923F4906343F0F1
:10468C008003A38126614E4426603E466561A5EBFE
:10469C000905A560BE4200D93E4632464146206817
:1046AC0000F0C8FAA36800209B1BA3602368334466
:1046BC002360DBE72A4600F0D7FA06460028E1D152
:1046CC0050462169FFF74AFEC7E700002DE9F04F7D
:1046DC0098468B8907461B060D4614469DB00ED591
:1046EC000B6963B94021FFF7A1FE2860286120B94E
:1046FC000C233B604FF0FF30D1E040236B61002373
:10470C00099320238DF8293030234FF00109CDF87F
:10471C000C80DFF8A4818DF82A3023469A4613F8D2
:10472C00012B0AB1252AF9D1BAEB040B0BD05B464D
:10473C00224629463846FFF76DFF013000F0AA806B
:10474C00099A5A4409929AF80030002B00F0A28082
:10475C0000234FF0FF32CDE905230AF1010A04933F
:10476C0007938DF853301A935446052214F8011B05
:10477C00514800F043FA049AD8B9D00644BF20231C
:10478C008DF85330110744BF2B238DF853309AF812
:10479C0000302A2B15D0544600204FF00A0C079AF3
:1047AC00214611F8013B303B092B4ED9B0B1079291
:1047BC0014E0A0EB080309FA03F31343A246049395
:1047CC00D2E7039B191D1B680391002BBBBF5B42F7
:1047DC0042F0020207930793B8BF049223782E2B62
:1047EC000CD163782A2B35D1039B02341A1D1B681C
:1047FC000392002BB8BF4FF0FF330593DFF8BCA03A
:10480C0003225046217800F0F9F940B14023A0EB87
:10481C000A0003FA00F0049B01340343049314F8D8
:10482C00011B062226488DF8281000F0E7F9002815
:10483C0038D0244B1BBB039B073323F007030833EF
:10484C000393099B3344099367E70C4601200CFB47
:10485C000232A5E700234FF00A0C194601340593E8
:10486C00204610F8012B303A092A03D9002BC5D069
:10487C000591C3E7044601230CFB0121F0E703ABD0
:10488C0000932A463846104B04A9AFF30080421C13
:10489C000646D6D1AB895B063FF52CAF09981DB007
:1048AC00BDE8F08F03AB00932A463846064B04A9AB
:1048BC0000F07CF8EBE700BFDA510008E05100088B
:1048CC00E451000800000000214600082DE9F047E3
:1048DC00164699468A680B6907469342B8BF134639
:1048EC00336091F843200C46DDF820800AB1013387
:1048FC0033602368990642BF3368023333602568FE
:10490C0015F0060506D104F1190AE36832689B1A02
:10491C00AB4228DC94F84320131E226818BF0123F5
:10492C0092062DD44946384604F14302C047013063
:10493C0020D02368E56803F00603042B18BF00257C
:10494C0032684FF00006A36808BFAD1A226908BF91
:10495C0025EAE5759342C4BF9B1AED181A34B5428B
:10496C001AD1002008E00123524649463846C04778
:10497C00013003D14FF0FF30BDE8F0870135C4E7BB
:10498C003020E11881F843005A1C94F84510224459
:10499C00023382F84310C5E70123224649463846C4
:1049AC00C0470130E6D00136D9E700002DE9FF47BA
:1049BC000F7E9146782F80460C469A460C9D01F14D
:1049CC00430207D8622F0AD8002F00F0D980582F45
:1049DC0000F0A48004F1420584F842703AE0A7F19B
:1049EC006303152BF6D801A151F823F0514A0008A6
:1049FC00654A0008E1490008E1490008E14900085E
:104A0C00E1490008654A0008E1490008E14900084D
:104A1C00E1490008E1490008734B0008954A000879
:104A2C00554B0008E1490008E1490008954B000886
:104A3C00E1490008954A0008E1490008E1490008ED
:104A4C005D4B00082B681A1D1B682A6004F1420597
:104A5C0084F842300123A4E020682968060601F19D
:104A6C0004030AD50E682B60002E03DA2D23764240
:104A7C0084F843300A235E4819E00E6810F0400FAA
:104A8C002B6018BF36B2EFE72B682068191D296020
:104A9C00010601D51E6802E04606FBD51E886F2F65
:104AAC000CBF08230A235248002184F84310656880
:104ABC00002DA8BF2168A560A4BF21F004012160CE
:104ACC000EB9002D4DD01546B6FBF3F103FB116763
:104ADC00C75D05F8017D3746BB420E46F4D9082B5D
:104AEC000BD12368DE0708D5236961689942DEBFC4
:104AFC00302305F8013C05F1FF35521B22614B4672
:104B0C0021464046CDF800A003AAFFF7DFFE013096
:104B1C004CD14FF0FF3004B0BDE8F087344881F839
:104B2C0045702968236851F8046B29601D0614D55B
:104B3C00DF0744BF43F0200323601EB9236823F032
:104B4C00200323601023AFE7236843F02003236086
:104B5C007823284884F84530E3E7590648BFB6B2B5
:104B6C00E6E71546BBE72B682668181D61692860C7
:104B7C0035061B6801D5196002E07006FBD519805B
:104B8C00002315462361BAE72B6800211A1D2A6001
:104B9C001D686268284600F031F808B1401B60605F
:104BAC0063682361002384F84330A8E72A4649460A
:104BBC0040462369D0470130ABD023689B0713D400
:104BCC00E068039B9842B8BF1846A4E7012332461D
:104BDC0049464046D04701309BD00135E3680399E4
:104BEC005B1AAB42F2DCEBE7002504F11906F5E7A2
:104BFC00EB510008FC51000870477047034610B594
:104C0C00C9B202449342184601D1002003E0047853
:104C1C0001338C42F6D110BD0A44914200F1FF33AE
:104C2C0000D1704710B511F8014B914203F8014FB8
:104C3C00F9D110BD884210B501EB020402D98442AF
:104C4C00234607D8431EA14208D011F8012B03F8C4
:104C5C00012FF8E7014602448A4200D110BD13F837
:104C6C00014D02F8014DF7E72DE9F041804614465D
:104C7C000E4621B91146BDE8F041FFF7D7BB2AB962
:104C8C00FFF76CFB25462846BDE8F08100F01BF8C9
:104C9C008442074602D8B4EB500F12D82146404646
:104CAC00FFF7C4FB05460028EDD0BC422246314636
:104CBC0028BF3A46FFF7B0FF31464046FFF74EFBA0
:104CCC00E1E73546DFE751F8043C181F002BBCBF69
:104CDC000B58C01870470000F8B500BFF8BC08BCF2
:104CEC009E467047F8B500BFF8BC08BC9E4670479E
:104CFC0054647463740000007365630054776169D5
:104D0C00740000004C27494E4E4F564154494F4EAB
:104D1C00000000004E2741205041532044452046BE
:104D2C005245494E000000007777772E62616E6124
:104D3C006166726963612E636F6D000054696D6505
:104D4C00204C6566740000002020202020202020AC
:104D5C0020202020202020200000000052554E0052
:104D6C00414C524D000000005741495400000000D6
:104D7C004D454E550000000052535400455343001E
:104D8C0025730000256C750053455454494E475308
:104D9C0000000000454E54005341564544000000AD
:104DAC00FFFFFFFFFFFFFFFFFFFFFFFFFFFFFFFF07
:104DBC00FFFFFFFFFFFFFFFFFFFFFFFA00FFFFFFFB
:104DCC00FFFFFFFFFFFFFFFFFFFFFFC0001FFFFF05
:104DDC00FFFFFFFFFFFFFFFFFFFFFF02FD03FFFFD2
:104DEC00FFFFFFFFFFFFFFFFFFFFFC1FFFC1FFFFE8
:104DFC00FFFFFFFFFFFFFFFFFFFFF87FFFF87FFFC5
:104E0C00FFFFFFFFFFFFFFFFFFFFE1FFFFFE3FFF85
:104E1C00FFFFFFFFFFFFFFFFFFFFC7FFFFFF1FFFAE
:104E2C00FFFFFFFFFFFFFFFFFFFF8FFFFFFF87FF6E
:104E3C00FFFFFFFFFFFFFFFFFFFF1FFFFFFFE7FF6E
:104E4C00FFFFFFFFFFFFFFFFFFFE3E83FFFFE3FFC0
:104E5C00FFFFFFFFFFFFFFFFFFFE7803FFFFF9FFE0
:104E6C00FFFFFFFFFFFFFFFFFFFCF001DFFFF8FF7D
:104E7C00FFFFFFFFFFFFFFFFFFF8F000007FFCFFCD
:104E8C00FFFFFFFFFFFFFFFFFFF9E000007FFE7F4A
:104E9C00FFFFFFFFFFFFFFFFFFF3E000003FFE3FC0
:104EAC00FFFFFFFFFFFFFFFFFFE3C000007FFF3F9F
:104EBC00FFFFFFFFFFFFFFFFFFE78000003FFF3F0B
:104ECC00FFFFFFFFFFFFFFFFFFE70000003FFF9F1B
:104EDC00FFFFFFFFFFFFFFFFFFCF0000003FFF8F33
:104EEC00FFFFFFFFFFFFFFFFFFCF0000001FFFCF03
:104EFC00FFFFFFFFFFFFFFFFFF8F8000001FFFCFB3
:104F0C00FFFFFFFFFFFFFFFFFF9F0000000FFFCF22
:104F1C00FFFFFFFFFFFFFFFFFFFF0000000FFFE79A
:104F2C00FFFFFFFFFFFFFFFFFFFF00000007FFE792
:104F3C00FFFFFFFFFFFFFFFFFFFF00000003FFE786
:104F4C00FFFFFFFFFFFFFFFFFFFF000000013FE738
:104F5C00FFFFFFFFFFFFFFFFFFFF800000003FE7A9
:104F6C00FFFFFFFFFFFFFFFF83FFC00000003FF3C9
:104F7C00C07FFFFFFFFFFC7F83FE200000007FE768
:104F8C00C01FFFFFFFFFFC7F01FE206000007FF3CE
:104F9C00C00FFFFFFFFFFC3F3FFE7FF80000FFF359
:104FAC00CFC7FFFFFFFDFC3F3FFFFFF80000FFE313
:104FBC00CFCFD6F77DD7F83E1FF7FFF80001FFF7EC
:104FCC00CFC780E41F80F91F02433C081F83FFE317
:104FDC00C7CF00E40F00F99F024238003BC7FFF730
:104FEC00CA8E38E10E30F19F1E0B38CC608FFFE774
:104FFC00C01E3CE3CE7DF38E3E1E71FC60CFFFE7FE
:10500C00C00E7C67CC7CF38F3E3F33FE408FFFE7B6
:10501C00CF8C7CE3C478F2CF3E7E33FE40C7FFE7F3
:10502C00C7C67CE7CCFCE0071E3F33FE40C7FFC77A
:10503C00CFE47CE7CC78E0073E7E73FEC087FFCFE1
:10504C00CFC67C67C67CE5A73E3F31FC60C73FCF2F
:10505C00CFCE38E3CC78C7E63E7E31E461C67FCF55
:10506C00C00610E7CE00CFE33E3E780C7F8C3F9F0E
:10507C00C01F00E7C700CFF31E7F380C1CDC7F9FDE
:10508C00C07FCCE7DF8F9FF33E7E7E3C00387F3FB6
:10509C00FFFFFFFFFFFFFFFFFFFFFFFE003CFF3F97
:1050AC00FFFFFFFFFFFFFFFFFFFFFFFE0038FE3F8C
:1050BC00FFFFFFFFFFFFFFFFFFFFFFFF003CFC7F39
:1050CC00FFFFFFFFFFFFFFFFFFFFFFFE007DFCFF69
:1050DC00FFFFFFFFFFFFFFFFFFFFFFFF00FFF9FFD9
:1050EC00FFFFFFFFFFFFFFFFFFFFFFFF00FFF1FFD1
:1050FC00FFFFFFFFFFFFFFFFFFFFFFFF01FFE3FFCE
:10510C00FFFFFFFFFFFFFFFFFFFFFFFF81FFC7FF59
:10511C00FFFFFFFFFFFFFFFFFFFFFFFF87FF0FFFFB
:10512C00FFFFFFFFFFFFFFFFFFFFFFFFAFFE1FFFB4
:10513C00FFFFFFFFFFFFFFFFFFFFFFFFFFFC7FFFF6
:10514C00FFFFFFFFFFFFFFFFFFFFFFFFFFE0FFFF82
:10515C00FFFFFFFFFFFFFFFFFFFFFFFFFF81FFFFD1
:10516C00FFFFFFFFFFFFFFFFFFFFFFFC500FFFFFE5
:10517C00FFFFFFFFFFFFFFFFFFFFFFF8003FFFFFF9
:10518C00FFFFFFFFFFFFFFFFFFFFFFFE8BFFFFFF98
:10519C00FFFFFFFFFFFFFFFFFFFFFFFFFFFFFFFF13
:1051AC0030313233343536373839000000000000E6
:1051BC0000000000010203040607080902030405AD
:1051CC00060708090A0B0C0D0E0F10100102232DF7
:1051DC00302B2000686C4C006566674546470030F4
:1051EC003132333435363738394142434445460041
:1051FC003031323334353637383961626364656641
:04520C00000000009E
:085210003101000865120008DD
:085218000D01000875120008E9
:1052200030303A30393A3539000000000024F400BB
:1052300010000000014080001C0000200000000061
:10524000000000000000000000000000000000005E
:10525000000000000000000000000000000000004E
:10526000000000000000000000000000000000003E
:10527000000000000000000000000000000000002E
:10528000000000000000000000000000000000001E
:0C52900000000000000000000000000012
:0400000508001609D0
:00000001FF
